:100000000C9431010C9478010C9478010C947801D3
:100010000C9478010C9478010C9478010C9478017C
:100020000C9478010C9478010C94571B0C942B1CA5
:100030000C9400150C9478010C9478010C947801C0
:100040000C9478010C9478010C9478010C9478014C
:100050000C9478010C944B150C9478010C94780155
:100060000C9478010C9478010C9478010C9478012C
:100070000C9478010C9478010C9478010C9478011C
:100080000C9478010C9478010C9478010C9478010C
:100090000C9478010C9478010C9478010C947801FC
:1000A0000C9478010C9478010C947801075A095A41
:1000B0000B5A0D5A115A165A1A5A1C5A1E5A205ABD
:1000C000225A085A0A5A0C5A0E5A125A175A1B5ACE
:1000D0001D5A1F5A215A295A00000000015A0F5A6E
:1000E000105A185A195A025A00000000000000D095
:1000F000D0D0D0D0D00101020408102041424448A1
:1001000048000000484850608182848890A0C1C2A5
:10011000C4D0D0D0D0D0D0C8000000000000000073
:1001200000000000000000000000000000001003BC
:10013000540068006500200055006E006900000052
:10014000160371006D006B006200750069006C00A1
:1001500064006500720000000403090409027800CD
:10016000040100A0FA0904000001030101000921B3
:10017000110100012240000705810308000A09045B
:1001800001000103000000092111010001223B00D0
:100190000705820320000A080B020202020100097F
:1001A00004020001020201000524001001042402DF
:1001B000020524060203070583030800FF09040360
:1001C00000020A000000070505021000050705846B
:1001D0000210000512011001EF020108EDFE60603F
:1001E00001000102000105010906A10185050507BD
:1001F00019E029E715002501950875018102050719
:10020000190029EF1500250195F0750181020508F7
:100210001901290595057501910295017503910153
:10022000C005010906A101050719E029E715002508
:10023000019508750181029501750881010507196D
:100240000029FF150026FF009506750881000508A6
:100250001901290595057501910295017503910113
:10026000C00011241FBECFEFDAE0DEBFCDBF04B661
:1002700003FE27C08091220290912302A0912402C4
:10028000B09125028730904BA740B04BD1F410922B
:10029000220210922302109224021092250214BE10
:1002A00084B7877F84BF0FB6F894A89580916000CB
:1002B000886180936000109260000FBEE0E0F8E378
:1002C000099511E0A0E0B1E0E8EEFFE302C005907F
:1002D0000D92AE33B107D9F722E0AEE3B1E001C031
:1002E0001D92A232B207E1F70E9491180C94CA1F26
:1002F0000C94000081E00C94740581E0089581E085
:1003000008950C947F0108950C9483011F93CF935B
:10031000DF9300D000D00F92CDB7DEB749835A8368
:100320006B833091600189819A8131111DC06623F0
:10033000B9F02223A9F00E94F611182F682F8981A5
:100340009A810E94A21169817A81812F0F900F906A
:100350000F900F900F90DF91CF911F910C943C0262
:100360000E94CE11182FEFCF0E94F61169817A8179
:10037000EDCFFC01262F4081518162817381848100
:100380000C948601CF93DF93EC0160E00E94B901E9
:10039000BE01DF91CF910C9484010E943A13811128
:1003A00002C00E94E8130C9425040C9428040895BC
:1003B0000E940C0D0E94D7012FEF84E39CE0215096
:1003C00080409040E1F700C000000C946F150F933F
:1003D0001F93CF93DF93EC0161E00E94B9018C0180
:1003E000BE010E948101882359F1BE01C8010E940B
:1003F0008605882329F1BE01C8010E94EF068823E3
:10040000F9F0BE01C8010E9441078823C9F0BE016E
:10041000C8010E946408882399F08A81882339F0F2
:1004200001158CE5180751F00F3D1C4579F0CE0100
:10043000DF91CF911F910F910C947D010E94D80103
:1004400080E0DF91CF911F910F9108950E94E813F2
:10045000F7CF08950C94290281E008950C942C02A2
:10046000CF93C82F0E942A028C2FCF910C942E027A
:1004700090E080E008950895972F70E02BE0929F20
:10048000600D711D1124FB0191E2899FE00DF11DAA
:100490001124EE0FFF1FE455FF4F859194910895AD
:1004A000FC01EE0FFF1FE251FF4F859194910895DB
:1004B000CF93DF930E943C020E944B03EC01811515
:1004C00021E59207D0F5811530E5930708F096C035
:1004D00081159042F8F4C11581E0D807B8F4C03E08
:1004E000D10588F4C03CD10508F07BC0C130D105EE
:1004F00069F0209759F0CE010497813A910530F0C8
:10050000D0E0C0E003C0C83ED105D0F7CE01DF91F6
:10051000CF910895C11590E4D90708F06CC0CE01C1
:100520009F70C11520E3D20708F45EC0CE01992761
:10053000D3FF5EC0EC01D86CE9CF811535E5930798
:1005400000F5811544E5940708F08DC0C11583E5D9
:10055000D80708F074C0C11592E5D90708F46AC03D
:10056000CE018370992721E030E002C0220F331FB3
:100570008A95E2F7C695C69580E2C89FE0011124EE
:1005800055C0811529E59207A0F4811538E5930738
:1005900008F06EC0811546E5940708F0B1CF0E94BF
:1005A000E203C82FD0E0DC2FCC27CC27DF71D0624C
:1005B000ADCFC1158AE5D80708F45FC0CE019056CB
:1005C0008115904208F09CCF8D2F8F710E94E2031D
:1005D00090E0982F882788279F719C012C2BE90198
:1005E000E6CFCE01805C91090E945002EC018ECFD3
:1005F000EC01D06C8BCFDF70D06A88CFE4E09695A9
:100600008795EA95E1F783702C2F26952695237020
:1006100040E2249F90011124382B8C2F8370C1E07D
:10062000D0E002C0CC0FDD1F8A95E2F7C22BD32B9E
:10063000DC686CCFDC2FCC27C16FD06A67CFCE01CE
:100640008370992721E030E002C0220F331F8A9582
:10065000E2F7C695C69590E2C99FE0011124C22B2E
:10066000D32BDA6853CFD82FCC27C46FD06A4ECFA4
:10067000D82FCC27C06FD06A49CF8C2F8F700E94A3
:10068000E20334E0D695C7953A95E1F7CF709C2FF9
:10069000EC01D0693BCF82389105B1F1B0F48133E0
:1006A000910509F475C048F48932910509F469C0CF
:1006B0008A32910509F473C008958533910509F4D0
:1006C00059C08933910501F10895833E9105A9F13F
:1006D00038F4803E9105F9F0823E910549F1089584
:1006E000863E9105A9F1873E9105C9F1843E9105A9
:1006F00019F52091140221FF1FC08091130284FD7F
:1007000014C087EE90E00895209113022370A1F0A9
:1007100080EE90E008952091130220FD47C03091B3
:10072000140230FF09C024FF44C090E080E004C000
:100730002091130222FDF7CF08952091130222FD8C
:100740003BC03091140230FDE3CF24FFF5CFEDCF55
:100750002091130223FFF0CF24FDE7CFD2CF2091C9
:10076000130223FD2CC03091140231FFEECF84EE32
:1007700090E008952091130225FFDECF89E290E0FA
:1007800008952091130225FFD7CF85E390E00895C7
:100790002091130226FFD0CF8AE290E008952091A5
:1007A000130226FFC9CF81E390E0089589E390E02A
:1007B000089583EE90E0089582EE90E0089586EE2D
:1007C00090E008959091130292FF06C0282F28719F
:1007D0002830F9F4877F846093FF06C0282F2871A2
:1007E0002831F1F4877E84612091140220FF06C035
:1007F000382F38713830D9F4877F816021FF06C0E7
:10080000282F28712831D1F4877E816194FD877E5D
:100810000895282F24712430F9F68B7F8860DCCF6F
:10082000282F2471243101F78B7E8861DDCF382F8A
:100830003171313019F78E7F8860E0CF282F217118
:10084000213121F78E7E8861E1CF0C947A010895E1
:100850000C942704E82FF0E0EE0FFF1FE75FFD4F39
:10086000808191810895089580EA8A95F1F708952D
:10087000F894E82FE295EF70F0E031A1282F2F7067
:1008800081E090E001C0880F2A95EAF7982F9095B3
:10089000932391A392A1892B82A378940895CF9357
:1008A000DF9384EF0E94380482E30E94380486E3D9
:1008B0000E943804C0E3D1E089910E94380481E0AD
:1008C000CB33D807C9F7109204021092030210929A
:1008D0000A0210920902109206021092050210926A
:1008E0000C0210920B021092080210920702109252
:1008F0000E0210920D0283E00E940005DF91CF915D
:100900000C94CD01AF92BF92DF92EF92FF920F93C2
:100910001F93CF93DF93CBE3D1E003E012E0D12C20
:10092000EE24E394F12C8991F894E82FE295EF708E
:10093000F0E021A18F70A70102C0440F551F8A95D6
:10094000E2F7CA01922F982B91A392A18095892357
:1009500082A378940E943404E0E3F1E030E020E0E8
:10096000B12CA12C4191A42FA295AF70B0E090962C
:100970008C9190E04F7002C0959587954A95E2F76B
:1009800080FD39C0C701022E02C0880F991F0A944A
:10099000E2F7A82AB92A2F5F3F4F2B30310511F714
:1009A000FE01319780810E943804F8018081918195
:1009B000A816B90619F1B182A08281E0D82A0E5F8B
:1009C0001F4FF1E0CE33DF0709F0ADCF2D2D43E00F
:1009D00069E072E083E092E00E9401050E94D50187
:1009E0008D2DDF91CF911F910F91FF90EF90DF90B0
:1009F000BF90AF90089590E080E0CBCF80E0DECF55
:100A00000895FF920F931F93CF93DF93F82E092F32
:100A1000162FD72FC42F222349F081E08093400165
:100A20000E94301590933F0180933E0180914001D8
:100A30008823A1F080913E0190913F010E943C15D6
:100A4000069760F0EF2DF02FA12FBD2F90E080E0F2
:100A5000D0E08C179D0744F010924001DF91CF91B8
:100A60001F910F91FF900895219131912D933D9306
:100A70000196EFCF86E0E9E4F1E0DF01982F1D92C7
:100A80009A95E9F7E3E4F1E0DF011D928A95E9F731
:100A90000895CF93DF9300D000D00F92CDB7DEB78B
:100AA0006B837C838D838C819D81892B21F0CA018E
:100AB00089238F3F51F480E081700F900F900F9049
:100AC0000F900F90DF91CF9108958B81F5CF0E9409
:100AD0003A13811102C00E94E8138DE090E00E9459
:100AE000881F809341010895CF93C82F0E943A0533
:100AF000C09341016C2F8DE090E0CF910C94961F34
:100B000081E0089581E0089581E00895EF92FF92D9
:100B10000F931F93CF93DF937C01EB0180E3E816E3
:100B20008AE5F806E9F030F4C7019A558A97A0F1F2
:100B3000C1E01DC0F1E3EF16FAE5FF06C9F781E356
:100B40009AE50E948405882389F0488159816A8149
:100B50007B818C810E944905882341F081E019C086
:100B600080E39AE50E948405811109C0C0E08C2FC2
:100B7000DF91CF911F910F91FF90EF9008954881E1
:100B800059816A817B818C810E944905882371F398
:100B900080E00E947405EACFC7010E948405882383
:100BA00029F3109141011123F9F0113009F445C0E6
:100BB0000091420123E431E0412FBE01C7010E94B0
:100BC0008205882399F2488159816A817B818C81D1
:100BD0000E944905C82F80914201CC2309F458C0D6
:100BE0008F5F80934201C2CF488159816A817B81A6
:100BF0008C810E944905F701FF27E251FF4F949134
:100C0000A92FA295A695A695A370B0E0882371F0B0
:100C10009D01275B3E4FF9018081892B8083AD5B6D
:100C2000BE4F8C91E92FE82BEC93C2CFA75BBE4F50
:100C3000E92FE0958C91E823F7CF488159816A81AB
:100C40007B818C810E944905482F8E2D67E00E9490
:100C5000761F292FE82FF0E086E090E0821B9109B3
:100C600021E030E001C0220F8A95EAF7DF01A75B9F
:100C7000BE4F8C91442341F0822B8C93ED5BFE4F51
:100C80008081282B208394CF209528232C9390CFEC
:100C9000815018160CF4A5CF1092420163E471E064
:100CA000809141010E948005882331F080914101AB
:100CB000882329F0813099F00E943A0558CF03E447
:100CC00011E0F80181918F0181110E945418F1E027
:100CD00007341F07B1F780E00E945418EDCF8091D0
:100CE000430180688093430103E411E089E4E82E26
:100CF00081E0F82EF80181918F010E945418E016CE
:100D0000F106C1F7D9CF0F931F93CF93DF93C42F71
:100D1000D22FFC0182818823C9F0409351010E94A7
:100D200030159093500180934F0180E28C0F8830F2
:100D300008F050C0C77081E001C0880FCA95EAF77B
:100D4000DF91CF911F910F910C94C30A1091510123
:100D5000141335C080914F01909150010E943C15B1
:100D6000883C910560F5C0E2CD0F1D17B9F080E217
:100D7000810F883040F4177081E001C0880F1A9508
:100D8000EAF70E94CA0AC83048F481E09D2F9770A4
:100D900001C0880F9A95EAF70E94C30A802F0E942B
:100DA000B00AC830B8F4D77081E001C0880FDA9576
:100DB000EAF7DF91CF911F910F910C94CA0A80E25C
:100DC0008C0F883038F4C77081E001C0880FCA9555
:100DD000EAF7EFCFDF91CF911F910F9108950F9315
:100DE0009C01CB01243F4CE5340759F1A8F4293D7F
:100DF000FCE53F0701F12A3D4CE53407D1F1283DE0
:100E00003C4591F406E221EE41EE68ED7CE50E945E
:100E1000830680E00F910895263FFCE53F07E9F047
:100E2000B0F0273F3C45F9F0FC018281882339F17D
:100E300010925101EFCF07E225EE45EE69ED7CE51A
:100E4000E6CF06E221EE40EE64EF7CE5E0CF07E27C
:100E500025EE44EE65EF7CE5DACF06E221EE42EEC8
:100E600066EF7CE5D4CF07E225EE46EE67EF7CE542
:100E7000CECF08E221E045EE6AED7CE5C8CF81E007
:100E8000C9CFCF93DF93EC01FB018281882309F462
:100E900019C1C230FCE5DF07C0F1C6319CE5D907B6
:100EA00030F09E012B5F3C452930310570F50E94E2
:100EB00057139093140280931302C031ECE5DE07C0
:100EC00009F4CFC008F05BC0C8308CE5D80709F43E
:100ED000B6C088F5C430ECE5DE0709F4A8C0C0F45C
:100EE000C2308CE5D80709F49CC08091130282605F
:100EF000C330DC4509F498C080911302909114022C
:100F00000E9465130E940C0D80E0DF91CF9108953F
:100F1000809113028061C630ECE5DE0709F484C0DD
:100F2000809113028860C730DC4508F47DC0809151
:100F30001302806279C0CC308CE5D80709F489C0EF
:100F400070F4809113028C60CA30ECE5DE0709F47E
:100F50006BC008F478C0809113028E7F65C0CE30DC
:100F60008CE5D80709F479C0809113028B7FCF30CC
:100F7000DC4508F459C0809113028F7E55C0CC3FE8
:100F8000ECE5DE0709F457C030F5C3318CE5D8072E
:100F900009F46FC078F4C131ECE5DE0709F465C0EF
:100FA000C231DC4509F0A8CF0E940C0D80911302DC
:100FB0008F773AC0C5318CE5D80709F462C008F4D0
:100FC00076C0809114028160CB3FDC4509F094CF5C
:100FD0008093140291CFC115FDE5DF0709F44DC0E0
:100FE00088F4809114028D7FCE3F9CE5D90781F370
:100FF000809114028E7FCF3FDC4550F38091140224
:101000008360E6CFC230FDE5DF0709F459C008F47C
:1010100044C080E0C330DD4509F06ECF0E94EA1382
:101020006BCF8091130281608093130265CF809112
:1010300013028460F9CF809114028260C9CF80913D
:1010400013028064F1CF0E940C0D8091130280681E
:10105000EBCF809113028D7FE7CF80911302877FC2
:10106000E3CF809113028F7DDFCF809113028F7BBE
:10107000DBCF80911302837FD7CF809114028C7FC6
:10108000A7CF8091130282FB992790F921E0922744
:1010900090FB82F990FB83F9C7CF80911402982FBF
:1010A000909591708E7F892B90FB81F991CF0E9452
:1010B0000C0D90911302892F97FB87F98058B4CFBC
:1010C00081E0ACCF81E021CFCF93DF93EB0186317C
:1010D0009C4511F50E948B129A81992399F08A7A86
:1010E00091E009F490E090935201811109C089E2E6
:1010F0000E9466120E94D71280E0DF91CF9108957E
:1011000085E3F6CF80915201811104C089E20E94EB
:101110006D12F0CF85E3FBCF81E0EFCF90935801C4
:10112000809357010895E0915701F091580130974D
:1011300021F00190F081E02D099480E00895E09184
:101140005701F0915801309799F0209127012223FF
:1011500059F02091130227FF07C0DC012C91119652
:101160002C93119725E02C930280F381E02D0994B4
:10117000089520915501309156012817390771F0D3
:101180009093560180935501E0915701F0915801D9
:10119000309721F00680F781E02D09940895209181
:1011A0005301309154012817390771F0909354017D
:1011B00080935301E0915701F0915801309721F04D
:1011C0000084F185E02D0994089585B7806885BF76
:1011D00085B7806885BF0895089508950C94EC083C
:1011E00008950C94F0080E94E5080E94ED080C9404
:1011F000EE0881E008950C94F908089508950E947E
:1012000027150E944F040E94DE150E946705E3E146
:10121000F2E08081806880838091130290911402B3
:101220000E9465130C94F1089F92AF92BF92CF92E7
:10123000DF92EF92FF920F931F93CF93DF93CDB77F
:10124000DEB72A970FB6F894DEBF0FBECDBF0E945F
:10125000FD080E94FE080E9482040E94FB08882369
:1012600009F46DC05AE5A52E51E0B52E10E000E05E
:10127000902E802F0E942A046C01F501E190F190DC
:101280005F01E816F90609F454C08091DF0181FD81
:101290000E94330497012C253D2580E0EE24E39441
:1012A000F12CA9014E215F21452BE9F18E839F820C
:1012B000CE20DF2081E0CD2809F480E088870E94DD
:1012C00030158160782F9A8789874E815F81688584
:1012D0008A850E94C209000F111FF801E65AFE4FCD
:1012E00080819181E826F926F182E0820E949308AC
:1012F000909159018917A1F10E9493088093590197
:101300002A960FB6F894DEBF0FBECDBFDF91CF9106
:101310001F910F91FF90EF90DF90CF90BF90AF9013
:101320009F900C9430028F5FEE0CFF1C8B3009F005
:10133000B8CF0F5F1F4F0330110509F099CF8FEF22
:1013400089838A831B820E9430158160782F9D8358
:101350008C8349815A816B818D810E94C209C6CFDD
:101360002A960FB6F894DEBF0FBECDBFDF91CF91A6
:101370001F910F91FF90EF90DF90CF90BF90AF90B3
:101380009F900895CF93DF93CDB7DEB72B970FB61D
:10139000F894DEBF0FBECDBF4F83588769877A8729
:1013A0008B871E821D8285E0FE013796DE01119635
:1013B00001900D928A95E1F749815A816B817C8178
:1013C0008D819E812B960FB6F894DEBF0FBECDBFE8
:1013D000DF91CF910C94820FFC01808191810C945C
:1013E0003812CF93C82F882309F469C08238C1F41A
:1013F0000E94930881FD63C089E30E9466120E94E7
:10140000D7122FEF81EE94E0215080409040E1F719
:1014100000C0000089E30E946D12CF910C94D71296
:101420008338A1F40E94930880FD49C083E50E949F
:1014300066120E94D7122FEF81EE94E02150804077
:101440009040E1F700C0000083E5E5CF8438A1F4C7
:101450000E94930882FD33C087E40E9466120E94B6
:10146000D7122FEF81EE94E0215080409040E1F7B9
:1014700000C0000087E4CFCF8CEF8C0F813A90F44E
:101480006C2F80910001909101010E940314882328
:1014900029F08C2F0E946D120E94D7128C2F0E946F
:1014A0006612BBCF80E28C0F883048F4C77081E0B1
:1014B00001C0880FCA95EAF70E948E12AECFCF9175
:1014C0000895882309F44BC0823871F40E94930870
:1014D00081FF45C089E30E9466120E94D71289E30A
:1014E0000E946D120C94D712833859F40E9493080D
:1014F00080FF35C083E50E9466120E94D71283E503
:10150000EFCF843859F40E94930882FF28C087E403
:101510000E9466120E94D71287E4E2CF9CEF980FD8
:10152000913AF0F290E2980F983050F4877091E081
:1015300001C0990F8A95EAF7892F0E949412D2CFA1
:101540009BE5980F933020F490E080E00C94B9086C
:10155000885A873120F490E080E00C94CF080895F9
:10156000CF93C82F0E94F109C93349F42FEF87EEBA
:1015700093E0215080409040E1F700C000008C2FA4
:10158000CF910C94610A882321F00E948E120C9452
:10159000D7120895882321F00E9494120C94D71238
:1015A0000895BF92CF92DF92EF92FF920F931F9315
:1015B000CF93DF936C01D62FC72FFC0115811295B5
:1015C0001F70028101110E94AB120E948412E82E4A
:1015D000882391F00023D1F08C2F807F803421F07C
:1015E00080E28D0F883090F082E00E9422130E94EA
:1015F000841291E0E82EE926BC2EB2949FE0B92235
:10160000EB2DF0E0E453F04E0C94821FE12CF4CF6C
:101610001C2F1F70C07F11F01295107F0023A9F0BE
:10162000112359F080E28D0F883010F0D11109C0DC
:10163000812F0E948E120E94D7128D2F0E94F109D5
:1016400014C0812F0E949E12F6CF8D2F0E94610A36
:10165000112359F080E28D0F883010F0D1112CC089
:10166000812F0E9494120E94D7122B2D2850330BE9
:101670002430310520F40E9493080E943002EE20AD
:1016800009F477C10E94801280FD73C1F6011282B5
:101690000E947A120E940611C6010E94DA0C0E9472
:1016A0007A12DF91CF911F910F91FF90EF90DF9011
:1016B000CF90BF900C942711812F0E94A412D3CFFA
:1016C000FC2FFF70FF2EC07FC03219F0F29480EF24
:1016D000F822DD2369F0D13049F1002391F1112383
:1016E00051F1F601858180FFA8CF8F70858323C0DB
:1016F000002381F0111106C00E94BE128F290E94A2
:10170000C30AB3CF1130C1F70E94BE128F290E94C5
:10171000C412ABCF111106C00E94CD128F2D0E94B2
:10172000CA0AA3CF113009F4A0CFF6CF002329F0C5
:10173000163008F09ACF8F2DE2CF153008F095CFF4
:10174000EDCF112359F3D93349F4FFEF27EE33E0FE
:10175000F15020403040E1F700C000008D2F0E9482
:10176000610A83CF8C2F837009F041C001117DCFB6
:101770004D2F429546954770440F440F0D2F0F7023
:1017800010E030E020E0042E04C0000F111F221FE3
:10179000331F0A94D2F760E070E0CB01D4FF0FC092
:1017A0006FE070E080E090E004C0660F771F881F54
:1017B000991F4A95D2F76095709580959095C6953A
:1017C000C695C370602B712B822B932BC23049F0CE
:1017D00058F4C13019F00E94B81047CF0E94A610EB
:1017E00044CF0E94CA1041CF0E94A4103ECF8695DC
:1017F000002311F08C2F8170882309F436CF4D2FF0
:10180000429546954770440F440F0D2F0F7010E01E
:1018100030E020E0042E04C0000F111F221F331FF0
:101820000A94D2F760E070E0CB01D4FF0FC06FE004
:1018300070E080E090E004C0660F771F881F991F5A
:101840004A95D2F76095709580959095C695C69506
:10185000C370602B712B822B932BC23049F058F44C
:10186000C13019F00E947D1100CF0E946B11FDCE96
:101870000E948F11FACE0E94E010F7CECF700023A5
:1018800029F08C2F0E9406118D2F39CF8D2F0E94A9
:10189000CA0A8C2F0E942711E8CED23F89F160F44A
:1018A000D03FC9F0D13F29F1002309F442C0111102
:1018B000C4CE8C2F8F7121C0D33F39F1D43FA1F713
:1018C000002369F1CF718C2F0E94061163E08C2FE9
:1018D0000E940D13CACE002341F0153008F0C5CE8A
:1018E0008C2F8F710E944A11C0CE163008F0BDCEE9
:1018F000F7CF8C2F8F71002369F20E940611B5CEAD
:101900008C2F8F710023C9F3C5CF002329F08C2FB2
:101910008F710E94F110A9CE0E94EC10A6CE81E03A
:101920000E942213123008F4A0CE82E00E942213FB
:101930009CCE112359F0D93309F010CF8FEF97EED9
:10194000E3E081509040E040E1F706CF8C2F8F71AB
:10195000A1CF4C2F4F706D2FC6010E9438020E94FC
:101960001C1083CE4C2F4F706D2FC6010E943B027E
:101970007CCEDF91CF911F910F91FF90EF90DF9080
:10198000CF90BF9008950F931F93CF93DF93EC01F7
:10199000688179818A810E9442128C010E94A11182
:1019A0000E94A310B801CE01DF91CF911F910F913A
:1019B0000C94D10ACF93DF93EC018B819C81892B0E
:1019C00029F08881998189238F3F59F4DF91CF9144
:1019D0000895CE010E94C30CCE01DF91CF910C94EB
:1019E000C201CE010E94E7018111F3CF0E9484124F
:1019F000882361F38A81882349F382E0DF91CF91C4
:101A00000C9422130E94AB120E94BB120C94D712AA
:101A10000E9474120C94020D0E949B120C94080DEB
:101A2000E92FE295EF70E250EE3070F4F0E0E4520E
:101A3000F04E0C94821F803F19F020F4883E20F471
:101A400081E00895843FE1F380E00895883EC0F38B
:101A5000813FD1F7F5CF93FB882780F908950E9445
:101A600038120C94100DCF93DF9300D000D00F925A
:101A7000CDB7DEB70F900F900F900F900F90DF91C2
:101A8000CF910895CF93DF9300D000D000D0CDB791
:101A9000DEB726960FB6F894DEBF0FBECDBFDF913E
:101AA000CF9108951F93CF93DF93C091610116E00A
:101AB000809162018C1304C0DF91CF911F91089532
:101AC000D0E01C9FF0011D9FF00D1124ED59FE4F39
:101AD0004081518162817381848195810E94420D90
:101AE0002196C770E5CF4091930150919401609188
:101AF00095017091960180919701909198010C94B5
:101B0000420D1F93CF93DF9380919801807FA9F4BA
:101B100080919501882389F080916101C0916201D3
:101B20006091930170919401A0919601B0919701F9
:101B3000D62FD72316E0C81304C0DF91CF911F9191
:101B4000089590E0109711F0DF3F19F40196877027
:101B5000F2CF189F9001199F300D1124F901ED5912
:101B6000FE4F41814713F2CF40814613EFCF4281B0
:101B70004111ECCF438154814A1B5B0B483C51051A
:101B800028F7809198018F70806180939801F90106
:101B9000E859FE4F80818F708061808383E991E0F6
:101BA0000E94DA0CDF91CF911F910C94520DAF92ED
:101BB000BF92CF92DF92EF92FF920F931F93CF933A
:101BC000DF93CDB7DEB761970FB6F894DEBF0FBED7
:101BD000CDBF8C0185E0F801DE011D9601900D92CC
:101BE0008A95E1F7F80140815181E28083E9C82EAE
:101BF00081E0D82E60919601709197016115710571
:101C000009F461C19091930120919401892F82235D
:101C10008F3F09F458C1A380B480F0909501F5017D
:101C2000E61BF70BFF2009F4FCC080919801382FC8
:101C3000307FE83CF10508F0B2C0311179C0FE2CCC
:101C4000251323C0941321C0E1101FC08F70806141
:101C5000809398010E94730DC6010E94DA0C809156
:101C60009801F80185838F2D61960FB6F894DEBF39
:101C70000FBECDBFDF91CF911F910F91FF90EF90DD
:101C8000DF90CF90BF90AF900895AB2829F0842FBC
:101C900085238F3F09F033C180E0F82FF170DF2EEC
:101CA00080FF3CC0809161012091620136E0821387
:101CB00015C04D875E878D859E850E943812292F1D
:101CC00022952F702230F0F0243018F59F70F1F03B
:101CD000F8019581907FD1F4D12C1EC090E0389FFF
:101CE000F001399FF00D1124ED59FE4F618165130C
:101CF00006C06081641303C062816E110FC001963B
:101D00008770D5CF9F7011F0882331F3805E8830C3
:101D100018F3C8010E94DA0CFD2CA5CFEE2009F4BF
:101D2000A2CF80919801816080939801F12C9BCF84
:101D3000251306C0941304C0F801EE2009F48DC0E9
:101D40004D875E878D859E850E942F0D882319F112
:101D5000EE2009F180919801803270F0209193017A
:101D60003091940138872F831986BB86AA868C8789
:101D7000CE0107960E94DA0C86E0F801A3E9B1E0F3
:101D800001900D928A95E1F70E94810D0E94730DDA
:101D9000FF24F39468CFC8010E94DA0CF9CF311107
:101DA00013C07A2DB98AA88A6E2D89890E94330DB5
:101DB00083E991E00E94DA0C86E0F60111928A959F
:101DC000E9F70E94730DB2CF25130FC094130DC015
:101DD000E1100BC0F8018583C8010E94DA0C86E08F
:101DE000F60111928A95E9F73ECF4D875E878D8582
:101DF0009E850E942F0D882371F2EE2061F2809162
:101E00009801803208F4B8CF209193013091940169
:101E10003A8329831B82BD82AC828E83CE010196D8
:101E2000A9CFE83CF10508F041C0FE2CEE2009F4F2
:101E3000B2CF25132AC0941328C08091980180FD49
:101E40001BC0982F907FC1F0F8018583903F31F03F
:101E5000982F907F905F8F70892B8583C8010E9497
:101E6000DA0C86E0F801A3E9B1E001900D928A95C1
:101E7000E1F70E94730DF7CE86E0F801A3E9B1E027
:101E800001900D928A95E1F7EECE4D875E878D85A4
:101E90009E850E942F0D81116FCF809198018160E6
:101EA00080939801C8010E94DA0CDDCE7A2DB98AA0
:101EB000A88A6E2D89890E94330D86E0F601119261
:101EC0008A95E9F7D6CFEE2009F465CF4D875E8776
:101ED0008D859E850E942F0DF82E882309F45BCFF7
:101EE00086E0F801A3E9B1E001900D928A95E1F74F
:101EF00083E991E00E94EC090E94810DBACF81E054
:101F00008E25CBCE1F93CF93DF93CDB7DEB72C9723
:101F10000FB6F894DEBF0FBECDBF4F8358876987D9
:101F20007A878B879C87CE0107960E94D70D8823DE
:101F300069F08A859B85892B39F04F815885842FDC
:101F400085238F3F09F071C016E05FC086E0FE0177
:101F50003796DE01119601900D928A95E1F78A85F8
:101F60009B85892B89F38F81988589238F3F61F326
:101F70002091620130E0C901019687709927409154
:101F800061014817190671F40E940C0D109262014C
:101F90001092610186E0E3E9F1E0DF011D928A958C
:101FA000E9F7D2CF96E0929FD001939FB00D112414
:101FB000AD59BE4FFE01319601900D929A95E1F711
:101FC000809362010E94520DBFCF819FC0011124F6
:101FD0008D599E4F0E94D70D8823E9F0E091610151
:101FE0001E9FF0011124ED59FE4F40815181628105
:101FF0007381848195810E94420D8091610190E0FE
:102000000196877099278093610180916101909179
:1020100062018913DACF2C960FB6F894DEBF0FBE9B
:10202000CDBFDF91CF911F91089569857A858B850A
:102030009C850E94420D88CFEF92FF920F931F93D1
:10204000CF93DF938C01892B81F0F12CEE24E39464
:10205000E8012196F8018491843770F4843008F007
:102060005FC08130B1F08230A1F1DF91CF911F913B
:102070000F91FF90EF900895853709F44CC008F454
:102080003DC09CE7980F903780F78F770E94610AD8
:1020900049C00E5F1F4FFE01849190E2980F983067
:1020A00060F48770FE2D01C0FF0F8A95EAF78F2F2D
:1020B0000E94AE120E94D71202C00E94F1098F2D19
:1020C000815030F2EFE9FFE03197F1F700C00000F6
:1020D000F7CF0E5F1F4FFE01849190E2980F98306A
:1020E00050F48770FE2D01C0FF0F8A95EAF78F2FFD
:1020F0000E94B412DFCF0E94610AE1CF0E5F1F4F32
:10210000FE01C491C150D8F28FE99FE00197F1F729
:1021100000C00000F7CF0E5F1F4FFE01F490CFCF3D
:102120000E94F1098E01CBCF08950C9494100E9467
:1021300095106093B6017093B7018093B8019093A6
:10214000B9010C94020D08950C9497100F931F93EE
:102150000091B6011091B7012091B8013091B901F9
:10216000602B712B822B932B1F910F910C94971046
:102170000F931F930091B6011091B7012091B80100
:102180003091B90160237123822393231F910F9112
:102190000C9497100F931F930091B6011091B70103
:1021A0002091B8013091B9016027712782279327C8
:1021B0001F910F910C9497100C9494100C94DC10B8
:1021C0000E94DE106093B2017093B3018093B4015A
:1021D0009093B5010C94020D60E070E0CB010C947B
:1021E000E0100F931F9341E050E060E070E08A013F
:1021F0009B0104C0000F111F221F331F8A95D2F7C5
:10220000C901B8011F910F910C94E0100F931F9317
:1022100041E050E060E070E004C0440F551F661FCD
:10222000771F8A95D2F78091B2019091B301A09166
:10223000B401B091B5018A019B01082B192B2A2BFF
:102240003B2BC901B8011F910F910C94E0100F9323
:102250001F9341E050E060E070E004C0440F551F60
:10226000661F771F8A95D2F7CB01BA0160957095EA
:10227000809590950091B2011091B3012091B40125
:102280003091B50160237123822393231F910F9115
:102290000C94E0100F931F9341E050E060E070E079
:1022A00004C0440F551F661F771F8A95D2F780918F
:1022B000B2019091B301A091B401B091B5018A012E
:1022C0009B01082719272A273B27C901B8011F911D
:1022D0000F910C94E0100F931F930091B201109195
:1022E000B3012091B4013091B501602B712B822B89
:1022F000932B1F910F910C94E0100F931F9300915B
:10230000B2011091B3012091B4013091B501602365
:102310007123822393231F910F910C94E0100F934C
:102320001F930091B2011091B3012091B40130913B
:10233000B50160277127822793271F910F910C9475
:10234000E01008952BE0929F800D1124982F977034
:1023500041E001C0440F9A95EAF7869586958695E7
:1023600095E0899FF0011124E756FE4F90E080E050
:1023700070E05191DF0111979B01082E02C0369544
:1023800027950A94E2F721702195252724232527F4
:102390002C9301968530910561F708952BE0929F6B
:1023A000800D1124982F977086958695869525E047
:1023B000829FF0011124E756FE4F50E040E080E09C
:1023C000219130E0092E02C0369527950A94E2F754
:1023D00021703327042E01C0220F0A94EAF7822BC2
:1023E0004F5F5F4F4530510559F70895BF92CF9227
:1023F000DF92EF92FF920F931F93CF93DF938C01A5
:10240000C090B201D090B301E090B401F090B5015A
:102410008091B6019091B701A091B801B091B90136
:10242000C82AD92AEA2AFB2ACFE1D0E0BC2ED7015C
:10243000C6010C2E04C0B695A795979587950A946A
:10244000D2F780FD0EC0219788F7B12C8B2DDF913C
:10245000CF911F910F91FF90EF90DF90CF90BF90A1
:102460000895B8018C2F0E945802019761F3EECFB6
:10247000CF93DF93EC010E94F611BE01DF91CF9163
:102480000C9458021F93CF93DF93EB01909160015E
:10249000992331F0CB01DF91CF911F910C94381229
:1024A000882379F0CB010E94F611182F682FCE01F6
:1024B0000E94A211BE01812FDF91CF911F910C9438
:1024C0005802CB010E94CE11182FF4CF682F8091B3
:1024D0000001909101010C948314682F80910001F8
:1024E000909101010C948E14809100019091010152
:1024F0000C9499148091BA018595859585950895D8
:102500008091BA01877008959091BA01977081E027
:1025100009F480E008958091DE0108959091DE0134
:10252000892B8093DE01089580959091DE01982398
:102530009093DE0108951092DE0108959091DD01DF
:10254000892B8093DD01089580959091DD0198237A
:102550009093DD0108951092DD0108959091DC01C2
:10256000892B8093DC01089580959091DC0198235C
:102570009093DC0108951092DC0108958091BB01D5
:10258000089508950C94C1129091BB01981721F001
:102590008093BB010C94C21208958091BB018823E3
:1025A00029F01092BB0180E00C94C2120895E091D2
:1025B0000001F09101018091DE018083E091000132
:1025C000F091010180819091DD01892B8083E09160
:1025D0000001F091010180819091DC01892B8083C1
:1025E0009091BB01992381F0E0910001F0910101EC
:1025F0008081892B808380910001909101010E944C
:10260000EF1381110E94CD12809100019091010180
:102610000C949F0808950C940A1398E0899F9001E8
:102620001124622B6093BA010E9406118091BA01B5
:102630008595859585950C940B131092BA0180E0D1
:102640000C940B139091BA01809589238093BA0161
:10265000282F277071F4282F082E000C330B9217A7
:10266000130639F08595859585950E9427110C9460
:102670001D13089590E080E00E94901F21E08C3EA1
:102680009E4F09F020E0822F089582E090E00C94A4
:10269000881F682F82E090E00C94961F83E090E002
:1026A0000C94881F682F83E090E00C94961FCF93C2
:1026B00084E090E00E94881FC82F81E290E00E9491
:1026C000881F982F8C2FCF910895CF93C92F682FF3
:1026D00084E090E00E94961F6C2F81E290E0CF9101
:1026E0000C94961FAB01BC018FE090E00C94A81FE6
:1026F000AB01BC0183E190E00C94A81F60E070E0A6
:10270000CB010C94781360E070E0CB010E9472134F
:102710000C947E136CEE7EEF90E080E00E94B41F7C
:1027200060E082E090E00E94961F60E083E090E02D
:102730000E94961F1092B6011092B7011092B80134
:102740001092B90160E084E090E00E94961F60E082
:1027500081E290E00E94961F60E085E090E00E9498
:10276000961F60E086E090E00E94961F6FEF87E082
:1027700090E00E94961F40E050E0BA0188E090E0AF
:102780000E94A81F60E08DE090E00E94961F40E04C
:1027900050E0BA0188E190E00E94A81F60E087E164
:1027A00090E00E94961F40E050E0BA018CE190E07A
:1027B0000E94A81F60E080E290E00E94961F40E027
:1027C00050E0BA0188E190E00E94A81F0C948313A6
:1027D0000C948A13682F8EE090E00C94961FFC01F5
:1027E000329680912701882321F0809113029EE187
:1027F00087FF96E080E0915008F40895219122230C
:10280000D1F38F5FF8CF662301F1209127012223B6
:10281000F1F02091130227FF1AC0462F46954695E6
:1028200046954E3190F4677021E030E002C0220FEF
:10283000331F6A95E2F7840F911DFC01828190E0BD
:102840002823392381E0232B69F480E00895FC01DB
:10285000329608962191261721F0E817F907D1F74B
:10286000F4CF81E008959C01FC0132969FEF80E057
:102870004191461751F09F3F19F4411101C0982F23
:102880008F5F8630A9F79F3F09F40895290F311D06
:1028900097FD3A95F90162830895FC0132960896F6
:1028A0002191261303C0DF0111971C92E817F90745
:1028B000B9F70895E62FE695E695E695EE3168F4CA
:1028C000E80FF92FF11D677021E030E001C0220F01
:1028D0006A95EAF78281822B82830895E62FE69536
:1028E000E695E695EE3170F4E80FF92FF11D67706B
:1028F00021E030E001C0220F6A95EAF7209582813D
:1029000028232283089520912701222329F0209152
:10291000130227FD0C945A140C94331420912701B0
:10292000222329F02091130227FD0C946E140C949D
:102930004D14FC01329680912701882351F080913B
:10294000130287FF06C08EE1DF011D928A95E9F729
:10295000089586E0F9CF089508950C94AC140E9470
:10296000AD1480911902843049F11092E00188E1A0
:1029700090E020E40FB6F894A895809360000FBE15
:102980002093600080E00E9430020E94AD1483B763
:10299000817F846083BF83B7816083BF789488958B
:1029A00083B78E7F83BF0FB6F894A895809160009F
:1029B000886180936000109260000FBE08950895B2
:1029C000CF930E94AB140E9482040E94DF14C0E0E7
:1029D0008C2F0E942A04892B31F4CF5FC330C1F7BA
:1029E00080E0CF91089581E0FCCF08950C94F51418
:1029F0000E940C0D0E9493080E9430020C94F61461
:102A00001F921FB61F9211248F939F93AF93BF9372
:102A10008091E001811113C080910F02909110020A
:102A2000A0911102B09112024196A11DB11D809397
:102A30000F0290931002A0931102B0931202BF9163
:102A4000AF919F918F911F901FBE1F90189582E0AC
:102A500084BD93E095BD9AEF97BD80936E00089575
:102A60002FB7F89480910F0290911002A09111025B
:102A7000B09112022FBF08959C014FB7F894809136
:102A80000F0290911002A0911102B09112024FBF5B
:102A9000821B930B089578941F921FB61F921124E6
:102AA0008F939F93AF93BF9380910F0290911002E9
:102AB000A0911102B09112020196A11DB11D809347
:102AC0000F0290931002A0931102B0931202BF91D3
:102AD000AF919F918F911F901FBE1F90189581E01D
:102AE0008093E00080E28093D8001092C9008FE1CB
:102AF0009EE40197F1F700C0000087E090EBDC0155
:102B00008093220290932302A0932402B093250283
:102B100088E19CE00FB6F894A895809360000FBE02
:102B200090936000FFCFAF92BF92CF92DF92EF926F
:102B3000FF920F931F93CF93C0E0CC24C394D12C6A
:102B4000E82EF12C8C2F0E942A045C0110E000E09A
:102B5000C601002E02C0880F991F0A94E2F78A214D
:102B60009B21892B99F40F5F1F4F0B30110581F7C3
:102B7000CF5FC33039F780E0CF911F910F91FF9065
:102B8000EF90DF90CF90BF90AF900895602F7C2F93
:102B900080E00E943C02E816F90629F781E0ECCFBC
:102BA000CF93C82F8CE20E949315882321F08C2F9D
:102BB000CF910C94931580E0CF910895CF930E940C
:102BC0003A13811102C00E94E813C5E608C00E94B2
:102BD00082048FE39CE90197F1F700C00000C15027
:102BE000B1F789E20E94D01581110BC18AE20E94DF
:102BF000D01581110E94E81385E00E94D015811143
:102C00000E946F150E9445138093DF0187E00E94A8
:102C1000D015882371F08BE10E94D015882309F428
:102C2000CDC09091DF01892F8D7F91FF82608093CD
:102C3000DF018091DF010E9449130E945713909396
:102C400014028093130280EE0E94D015882341F075
:102C500090911302892F8E7F90FF816080931302E1
:102C600089E30E94D015882341F090911302892FA7
:102C70008D7F91FF82608093130282EE0E94D015B7
:102C8000882341F090911302892F8B7F92FF8460FB
:102C90008093130286EE0E94D015882341F0909114
:102CA0001302892F877F93FF88608093130283EE3E
:102CB0000E94D015882341F090911302892F8F7EB6
:102CC00094FF80618093130285E30E94D0158823CE
:102CD00041F090911302892F8F7D95FF8062809340
:102CE000130281E30E94D015882341F090911302D2
:102CF000892F8F7B96FF80648093130281E10E946D
:102D0000D015882341F090911302892F97FB87F902
:102D100080588093130280911302909114020E94B4
:102D2000651387E20E94D015C82F8EE10E94D0154E
:102D30008111C2608FE10E94D0158111C46080E2D0
:102D40000E94D0158111C86081E20E94D0158111C6
:102D5000C06182E20E94D0158111C06283E20E94AC
:102D6000D0158111C06484E20E94D015882309F433
:102D700042C0C0688C2F0E9452136C2F70E090E00C
:102D800080E00E94A4106091B2017091B301809123
:102D9000B4019091B5010E94DE108FE00E94D01521
:102DA000882319F081E00E94EA1385E10E94D01582
:102DB000882339F180E0CF910C94EA138EE00E94D1
:102DC000D015882339F09091DF01892F8B7F92FFF6
:102DD00084602DCF80E10E94D0159091DF0188237F
:102DE00029F0892F877F93FF886021CF892F8E7FDD
:102DF00090FF81601CCFC111BDCF0E944E13682F80
:102E0000BDCFCF910895809101020895089508954E
:102E1000CF93DF93EC01809127018823B1F180915A
:102E2000130287FF32C060E282E08093E9008FEFF7
:102E30009091E800815095FD06C095ED9A95F1F7C7
:102E400000008111F5CF8091E80085FF1BC08091C3
:102E5000270170E050E040E0811104C050E040E004
:102E600068E070E0CE010E944C198091E8008E77F6
:102E70008093E80080E2FE01A1EEB1E001900D92A6
:102E80008A95E1F7DF91CF91089568E081E0CDCF99
:102E9000089580911802811109C00E94DC1A0E94D5
:102EA000391B8091E20084608093E20008951092C3
:102EB00018020895089508950C94F81442E061EC06
:102EC00081E00E94581A42E261EC82E00E94581AA6
:102ED00042E061EC83E00E94581A42E160E885E03C
:102EE0000E94581A42E161E884E00C94581A8091DB
:102EF0001B02833009F460C048F48130C9F182308C
:102F000009F4A2C082E091E00C94C41E8A3009F456
:102F10008AC08B3009F46DC08930A1F780911A0204
:102F2000813281F780911E0290911F02029750F723
:102F30008091E800877F8093E8008091E80082FF1D
:102F400036C09091F3008091F200029729F48091AD
:102F5000F1008B7F813021F48091F1008093010298
:102F60008091E8008B778093E8000E948C1ACACF8A
:102F700080911A02813A31F68091E800877F809330
:102F8000E80080911E0290911F02892B61F460E29B
:102F900081EE91E070E00E949B198091E8008B77B0
:102FA0008093E800AFCF60E090E080E0F3CF8091C5
:102FB00019028111C2CF089580911A02813A09F055
:102FC000A1CF80911E0290911F02892B09F09ACF08
:102FD0008091E800877F8093E8008091E80080FF7F
:102FE000FCCF809127018093F1008091E8008E77DB
:102FF000BACF80911A02813209F084CF80911E02EB
:1030000090911F02892B09F07DCF8091E800877F86
:103010008093E8000E948C1A80911C028093270103
:103020000E940C0D6FCF80911A02813209F06ACF95
:103030008091E800877F8093E8000E948C1A80913D
:103040001D02809302025ECF80911A02813A09F03C
:1030500059CF8091E800877F8093E8008091E80055
:1030600080FFFCCF80910202BECF82E090E090937F
:1030700015018093140182E091E00C947B1E089569
:10308000CF93DF9382E091E00E94221EEC01209713
:1030900019F4DF91CF91089582E091E00E944B1ED8
:1030A0000E943F182197F3CFCF93C091E900209160
:1030B000EC00922F917020FD90E82091120120FFEA
:1030C00012C0CF70C92B909103019F709093E900BB
:1030D0009091EB0090FF04C09091EE0097FD05C029
:1030E000CF70C093E900CF9108959FEF2091E80041
:1030F000915025FD06C025ED2A95F1F700009111AC
:10310000F5CF8093F10082E091E00E94DD1D809177
:10311000E80080FFE5CF8091E8008E778093E8009B
:10312000DFCF84B7877F84BF0FB6F894A8958091CE
:103130006000886180936000109260000FBE80E89C
:1031400090E00FB6F89480936100909361000FBEF9
:103150000E94F3080E94DC1A0E94391B8091E20051
:1031600084608093E20078940E94C21D0E94FF0850
:103170008DE191E00E948E080E943518809119021D
:10318000853069F00E9414090E94401882E091E0A5
:103190000E940B1E0E94FD080E94FE08EFCF0E94B5
:1031A000AF1480911702882349F30E94E01488230A
:1031B00029F30E943619E2CF0C94DE18292F332709
:1031C0002330310519F168F42130310509F444C088
:1031D0002230310509F445C090E080E030E020E085
:1031E00025C02132310549F122323105A9F780E4A9
:1031F00090E021E232E061157105C1F08BE390E0CF
:1032000026EE31E06130710589F0E6CF99278130F3
:10321000910581F0009729F00297F1F6EEE2F1E0D6
:1032200002C0E8E5F1E0849190E09F01FA0131836A
:1032300020830895E0E4F1E0F6CF89E090E02EE607
:1032400031E06115710591F389E090E027E831E004
:103250006130710559F3C0CF82E190E024ED31E097
:10326000E5CF88E790E02CE531E0E0CF80E189BD53
:1032700082E189BD09B400FEFDCF8091D8008F7D29
:103280008093D8008091E00082608093E00080917C
:10329000E00081FDFCCF0895AF92BF92CF92DF9204
:1032A000FF920F931F93CF93DF936C01EB018A0181
:1032B0000E94AB1AF82E811123C00115110539F0B7
:1032C000F80180819181C81BD90BC80ED91EB12C81
:1032D000A12C2097A9F08091E80085FD22C0809163
:1032E000E8008E778093E80001151105A1F0F80140
:1032F00080819181A80EB91EB182A08285E0F82E4E
:103300008F2DDF91CF911F910F91FF90DF90CF9084
:10331000BF90AF9008950E94AB1A8823D1F2F82E87
:10332000EFCFF60181916F018093F1002197FFEFBC
:10333000AF1ABF0ACECFFC018091200290912102EA
:1033400086179707A0F06115710529F49091E800A0
:103350009E779093E80090E06115710551F491110A
:1033600008C08091E80082FF34C080E00895BC016D
:10337000F2CF809119028823C1F18530C1F180918B
:10338000E80083FD30C08091E80082FDEACF8091A3
:10339000E80080FFE1CF8091F3002091F200382F08
:1033A0006115710519F02830310558F091E0283089
:1033B000310509F090E02091E8002E772093E80095
:1033C000CBCF81918093F100615071092F5F3F4F06
:1033D000E7CF80911902882341F0853041F0809138
:1033E000E80083FFBECF81E0089582E0089583E086
:1033F0000895FC0180912002909121028617970781
:10340000A0F06115710529F48091E8008E77809312
:10341000E80090E06115710551F4911108C08091A8
:10342000E80082FF35C080E00895BC01F2CF8091B2
:1034300019028823C9F18530C9F18091E80083FD24
:1034400031C08091E80082FDEACF8091E80080FFE2
:10345000E1CF8091F3002091F200382F61157105C2
:1034600019F02830310558F091E02830310509F085
:1034700090E08091E8008E778093E800CBCF849134
:103480008093F1003196615071092F5F3F4FE6CF75
:1034900080911902882341F0853041F08091E80045
:1034A00083FFBDCF81E0089582E0089583E0089511
:1034B000982F973028F08F708093E90081E008956D
:1034C0009093E900242F762F50E0981731F07091F7
:1034D000EC002091ED005091F00021FD02C09F5FB3
:1034E000E8CF3091EB003E7F3093EB003091ED0060
:1034F0003D7F3093ED003091EB0031603093EB0075
:103500007093EC002093ED005093F0002091EE00BA
:1035100027FDE5CF80E0089580911A0287FF13C050
:103520008091E80082FF06C08091E8008B7780934D
:10353000E80004C0809119028111F2CF08958091B2
:1035400019028823D9F38091E80080FFF8CF809199
:10355000E8008E77ECCF2091E4003091E50095E60D
:10356000A9012091EC00822F817020FF06C080917C
:10357000E80080FF06C080E008952091E80022FD69
:103580001AC080911902882389F0853089F08091D2
:10359000EB0085FD0FC02091E4003091E50042175B
:1035A0005307F9F29150E1F684E0089582E008951E
:1035B00083E0089581E008950E944A1B0E94521BF7
:1035C000E0EEF0E0808181608083E8EDF0E08081D2
:1035D0008F77808319BCA7EDB0E08C918E7F8C93A0
:1035E00080818F7E80831092180208950F931F931D
:1035F000CF93DF930E944A1B0E94521BC8EDD0E07C
:1036000088818F77888388818068888388818F7D8F
:10361000888319BC10921902109215021092170299
:103620001092160200EE10E0F80180818B7F8083FB
:1036300088818160888342E060E080E00E94581ABF
:10364000E1EEF0E080818E7F8083E2EEF0E0808129
:1036500081608083808188608083F80180818E7F93
:103660008083888180618883DF91CF911F910F9142
:103670000895E8EDF0E080818F7E8083E7EDF0E053
:1036800080818160808384E082BF81E08093180222
:103690000C94F61AE8EDF0E080818E7F8083109222
:1036A000E20008951092DA001092E10008951F924E
:1036B0000F920FB60F9211242F933F934F935F9366
:1036C0006F937F938F939F93AF93BF93EF93FF93EA
:1036D0008091E10082FF0BC08091E20082FF07C071
:1036E0008091E1008B7F8093E1000E94C11D809159
:1036F000DA0080FF19C08091D80080FF15C080914A
:10370000DA008E7F8093DA008091D90080FF96C026
:1037100080E189BD82E189BD09B400FEFDCF81E071
:10372000809319020E9449178091E10080FF19C01F
:103730008091E20080FF15C08091E2008E7F80932F
:10374000E2008091E20080618093E2008091D800E5
:1037500080628093D80019BC85E0809319020E9492
:103760005B178091E10084FF2BC08091E20084FF11
:1037700027C080E189BD82E189BD89B5982F91700C
:1037800080FFFBCF8091D8008F7D8093D8008091FF
:10379000E1008F7E8093E1008091E2008F7E809334
:1037A000E2008091E20081608093E2008091150246
:1037B000882309F449C084E0809319020E945C17B1
:1037C0008091E10083FF29C08091E20083FF25C042
:1037D0008091E100877F8093E10082E0809319026D
:1037E000109215028091E1008E7F8093E10080911C
:1037F000E2008E7F8093E2008091E20080618093FE
:10380000E20042E060E080E00E94581A8091F000FF
:1038100088608093F0000E945A17FF91EF91BF914A
:10382000AF919F918F917F916F915F914F913F9158
:103830002F910F900FBE0F901F90189519BC1092EA
:1038400019020E94571770CF8091E30087FD93E023
:1038500090931902B3CF1F920F920FB60F921124BB
:103860002F933F934F935F936F937F938F939F9388
:10387000AF93BF93CF93DF93EF93FF93D091E90082
:10388000DF708091EC00C82FC17080FDC0E81092FD
:10389000E9008091F000877F8093F00078940E9487
:1038A0006F1C1092E9008091F00088608093F00016
:1038B000CD2BCF70C093E900FF91EF91DF91CF91B5
:1038C000BF91AF919F918F917F916F915F914F9138
:1038D0003F912F910F900FBE0F901F9018951F933F
:1038E000CF93DF93CDB7DEB7AA970FB6F894DEBFBC
:1038F0000FBECDBF8AE192E02091F100FC0121933F
:10390000CF01F2E082329F07B9F70E9477178091CA
:10391000E80083FF1EC180911A0290911B029A3029
:1039200008F017C1E92FF0E0E651F04E0C94821F29
:10393000803899F0823809F00CC180911E028F7096
:10394000873008F006C18093E9008091EB0085FB89
:10395000882780F91092E90006C0809116029091A4
:103960001702911182609091E800977F9093E80090
:103970008093F1001092F1008091E8008E77E5C00D
:10398000882309F4D3C0823009F0E3C080911C027F
:103990008111D6C080911E028F702FEF280F263024
:1039A00008F0D7C08093E9002091EB0020FFC8C049
:1039B000933031F48091EB0080628093EB00C0C0C3
:1039C0009091EB0090619093EB0021E030E001C01A
:1039D000220F8A95EAF72093EA001092EA0080917C
:1039E000EB008860EACF8111B4C010911C021F77F0
:1039F0008091E3008078812B8093E3008091E80040
:103A0000877F8093E8000E948C1A8091E80080FFF5
:103A1000FCCF8091E30080688093E30082E0111185
:103A200083E08093190295C08058823008F091C0DD
:103A300080911C0290911D028C3D23E09207A1F51C
:103A400083E08A838AE289834FB7F894DE01139674
:103A500020E03EE051E2E32FF0E050935700E49184
:103A600020FF03C0E295EF703F5FEF708E2F90E074
:103A7000EA30C0F0C7968D939D932F5F243159F79C
:103A80004FBF8091E800877F8093E8006AE270E092
:103A9000CE0101960E949B198091E8008B7780935C
:103AA000E80057C0C096E7CF60911E0270911F02D8
:103AB000AE014F5F5F4F0E94DC18BC01892B09F4F7
:103AC00048C09091E800977F9093E80089819A819F
:103AD0000E94F919E1CF8038E1F58091E800877FF5
:103AE0008093E800809115028093F10045CF811109
:103AF00030C090911C02923060F58091E800877F81
:103B00008093E800909315020E948C1A8091150210
:103B1000882311F084E005C08091E30087FDFACF8F
:103B200081E0809319020E945E1713C080911C02ED
:103B3000813079F481E0933009F080E080931702BE
:103B40001092E9008091E800877F8093E8000E944E
:103B50008C1A8091E80083FF0AC08091E800877F7B
:103B60008093E8008091EB0080628093EB00AA963E
:103B70000FB6F894DEBF0FBECDBFDF91CF911F917E
:103B800008950895CF93809119028823A1F0C091E0
:103B9000E900CF709091EC00892F817090FD80E852
:103BA000C82B1092E9008091E80083FD0E946F1CF1
:103BB000CF70C093E900CF9108952091190224306D
:103BC00041F5FC014489558966897789452B462B47
:103BD000472BF9F081818F708093E9009091F30079
:103BE0008091F200892B11F480E008959091E80013
:103BF0008091E8008E778093E80095FDF5CF0E94D4
:103C0000AB1A811107C09091E8009E779093E8006D
:103C1000089582E0089520911902243091F4FC0166
:103C20004489558966897789452B462B472B49F06E
:103C300021812F702093E9002091E80020FD0C9451
:103C4000DD1D089520911902243019F090E080E0E4
:103C50000895FC014489558966897789452B462B4F
:103C6000472BA1F386818F708093E9008091E80053
:103C700082FFECCF9091F3008091F200009731F435
:103C80002091E8002B772093E80008959091F300AD
:103C90008091F200089520911902243019F08FEFDD
:103CA0009FEF0895FC014489558966897789452BE2
:103CB000462B472BA1F386818F708093E90080917A
:103CC000E80082FFECCF9091F3008091F200892B05
:103CD00079F08091F10090E03091F3002091F200B2
:103CE000232B29F42091E8002B772093E8000895F6
:103CF0008FEF9FEFF1CF0F931F93CF93DF93CDB74C
:103D0000DEB728970FB6F894DEBF0FBECDBF8C018B
:103D100080911902843059F5F80184899589A68922
:103D2000B789892B8A2B8B2B11F183858F70809318
:103D3000E90088E0E8E2F1E0DE01119601900D92E1
:103D40008A95E1F750E040E068E070E0CE0101962E
:103D50000E944C1950E040E062E070E0C8014296D9
:103D60000E944C198091E8008E778093E800289695
:103D70000FB6F894DEBF0FBECDBFDF91CF911F917C
:103D80000F91089508950895CF93DF93EC018091EA
:103D9000E80083FF10C0288180911E0290911F02CD
:103DA0002817190641F480911B028132F1F030F49A
:103DB000803209F450C0DF91CF910895823209F426
:103DC0007EC08332C1F780911A028132A1F78091BF
:103DD000E800877F8093E8000E948C1A60911C02A3
:103DE000CE01DF91CF910C94C31E80911A02813ACB
:103DF00011F78091E800877F8093E8008091E800C8
:103E000080FFFCCF8C899D89AE89BF898093F100AA
:103E1000492F5A2F6B2F77274093F100AD0166276A
:103E200077274093F1008B2F9927AA27BB278093F0
:103E3000F100888D8093F100898D8093F1008A8D47
:103E40008093F1008091E8008E778093E800DF9105
:103E5000CF910C948C1A80911A02813209F0ABCF69
:103E60008091E800877F8093E8008091E80082FFDE
:103E700021C03091F1002091F1009091F1008091EA
:103E8000F1003C8B2D8B9E8B8F8B8091F100888F66
:103E90008091F100898F8091F1008A8F8091E800F4
:103EA0008B778093E8000E948C1ACE01DF91CF912E
:103EB0000C94C21E809119028111D7CF7CCF8091C2
:103EC0001A02813209F077CF8091E800877F8093D2
:103ED000E8000E948C1A80911C0290911D02998B1F
:103EE000888BCE01DF91CF910C94C21E991B79E093
:103EF00004C0991F961708F0961B881F7A95C9F77A
:103F000080950895EE0FFF1F0590F491E02D099420
:103F1000F999FECF92BD81BDF89A992780B5089591
:103F2000A8E1B0E042E050E00C94BC1F262FF999C4
:103F3000FECF92BD81BDF89A019700B4021639F008
:103F40001FBA20BD0FB6F894FA9AF99A0FBE0895D9
:103F50000396272F0E94971F0E94961F252F0E94CD
:103F6000971F242F0C94971F0196272F0E94971FAD
:103F70000C94961FDC01CB01FC01F999FECF06C021
:103F8000F2BDE1BDF89A319600B40D924150504017
:103F9000B8F70895F894FFCF080B080B600B600B7F
:103FA000350B350B350B350BB20B3E0C4D0C4D0C58
:103FB000A90C350B350BB20C1B0D1B0D240D240D5C
:103FC000260D240D240D240D1B0D1B0D2B0D240D72
:103FD000240D2B0D981CC01CA91DC01CA91DF31C71
:083FE000141DA91D6B1D771DC6
:103FE800BC010284100000010510000001830800D4
:103FF8000001000000000000000000000003170896
:104008001706170717481701A12000000000020033
:0E401800F5F6F731333534C6976694F4323638
:00000001FF
